:020000040000FA
:060000000A128A110E280D
:10000800FE00030E83120313B4000A08B5000A1297
:100018008A112D280A128A11112883133430FD0001
:100028000130FE008D30FF002A3084000A128A1148
:100038007E210A128A11A001A101A201A301A40133
:10004800A501A601A701A801A90183010A128A1125
:1000580092280B1D302831288B280130A00703185F
:10006800A10A0030A1070A30F8000030F900643016
:10007800F0000030F1002308F3002208F2000A1211
:100088008A11D9200A128A117108FB007008FA0037
:100098000A128A111D210A128A1179088312031380
:1000A800A9007808A8000A30F8000030F9000A30E2
:1000B800F0000030F1002308F3002208F2000A12D1
:1000C8008A11D9200A128A117108FB007008FA00F7
:1000D8000A128A111D210A128A1179088312031340
:1000E800A7007808A6000A30F8000030F9002308B5
:1000F800FB002208FA000A128A111D210A128A112D
:10010800790883120313A5007808A4000B11350899
:100118008A00340E8300FE0E7E0E09000A128A1130
:1001280057210A128A118312031328082A3E8400D1
:1001380083130008870009140D3083120313B700D6
:10014800FB30B600B60BA628B70BA62883120313FC
:10015800091026082A3E84008313000887008914A2
:100168000D3083120313B700FB30B600B60BBA2864
:10017800B70BBA2883120313891024082A3E840077
:1001880083130008870009150D3083120313B70085
:10019800FB30B600B60BCE28B70BCE28831203135C
:1001A800091197280A128A110E28F501F60170081C
:1001B80071040319E028E1281829F701F70AEF2844
:1001C80001300310F00DF10DFF3E031DE52801304D
:1001D800F4007408F707F11FF228F328E428013027
:1001E8000310F50DF60DFF3E031DF4287108730288
:1001F800031D002970087202031C032904290B2916
:100208007008F2027108031CF303F302751401303D
:100218000310F10CF00CFF3E031D0C290130F7020E
:10022800031D17291829F3287608F1007508F0002E
:100238000800780879040319222923295229FD0185
:10024800FD0A312901300310F80DF90DFF3E031D99
:1002580027290130FC007C08FD07F91F34293529BE
:10026800262979087B02031D3B2978087A02031C9A
:100278003E293F2945297808FA027908031CFB031F
:10028800FB0201300310F90CF80CFF3E031D462950
:100298000130FD02031D5129522935297B08F90037
:1002A8007A08F80008008316031788018901831665
:1002B8000313850103308600870189018312031324
:1002C80085010330860087018901831603130F1700
:1002D8008F160F120F148112811101158114011448
:1002E8008B178B160B118B160B1008007E088A00D3
:1002F8007F0882000A128A117A210A128A11800064
:10030800840A04087D0603190034FF0A0319FE0A4B
:100318007E293F3406345B344F3466346D347D3483
:0603280007347F346F343E
:04400E00D430FF3F6C
:00000001FF
