:020000040000FA
:060000000A128A110E280D
:10000800FE00030E83120313B6000A08B7000A1293
:100018008A112D280A128A11112883133430FD0001
:100028000130FE00EA30FF002A3084000A128A11EB
:10003800DB210A128A11A001A101A201A301A401D6
:10004800A501A601A701A801A90183010A128A1125
:10005800A4280B1D3028312885280A30F8000030E4
:10006800F9006430F0000030F1002308F3002208A2
:10007800F2000A128A1117210A128A117108FB006C
:100088007008FA000A128A119D210A128A11790849
:1000980083120313A9007808A8000A30F80000307A
:1000A800F9000A30F0000030F1002308F3002208BC
:1000B800F2000A128A1117210A128A117108FB002C
:1000C8007008FA000A128A119D210A128A11790809
:1000D80083120313A7007808A6000A30F80000303E
:1000E800F9002308FB002208FA000A128A119D2150
:1000F8000A128A11790883120313A5007808A4004C
:100108000B110C1F882889289D281F0CB400340C5B
:100118000F390B3A031D9128922895281E0885004F
:100128009C281E08B400B5013408A2003508A300B5
:100138000C1337088A00360E8300FE0E7E0E090067
:100148000A128A115B210A128A111A3083120313C8
:10015800BA00F730B900B90BAF28BA0BAF28B428EA
:10016800831203139F1428082A3E8400831300086F
:10017800870009140D3083120313BA00FB30B9004D
:10018800B90BC428BA0BC428831203130910260814
:100198002A3E840083130008870089140D308312D7
:1001A8000313BA00FB30B900B90BD828BA0BD8280A
:1001B80083120313891024082A3E8400831300083D
:1001C800870009150D3083120313BA00FB30B900FC
:1001D800B90BEC28BA0BEC288312031309119F18EA
:1001E800F628F728B7281F0CB900390C0F390B3A35
:1001F800031DFF28002905291F08C33934389F002B
:1002080009291F08C3392C389F0020308312031393
:10021800B900B90B0D290000831203139F14B728E6
:100228000A128A110E28F501F601700871040319E3
:100238001E291F295629F701F70A2D290130031015
:10024800F00DF10DFF3E031D23290130F400740861
:10025800F707F11F30293129222901300310F50D44
:10026800F60DFF3E031D322971087302031D3E2956
:1002780070087202031C4129422949297008F202B8
:100288007108031CF303F302751401300310F10C19
:10029800F00CFF3E031D4A290130F702031D5529C2
:1002A800562931297608F1007508F00008008316F0
:1002B8000317880130308900831603138501303015
:1002C8008600870189018312031385013030860077
:1002D80087018901831603130F178F160F120F1446
:1002E800811281110115811401149F131F129F128D
:1002F800831203131F083F3940389F001F08C33972
:100308002C389F000F3083120313B800B80B8A29CA
:100318008D29831203131F148B170B178B160B11C0
:100328008B160B10831603130C17831203130C136D
:100338000800780879040319A229A329D229FD0104
:10034800FD0AB12901300310F80DF90DFF3E031D18
:10035800A7290130FC007C08FD07F91FB429B5293D
:10036800A62979087B02031DBB2978087A02031C99
:10037800BE29BF29C5297808FA027908031CFB039E
:10038800FB0201300310F90CF80CFF3E031DC629CF
:100398000130FD02031DD129D229B5297B08F900B6
:1003A8007A08F80008007E088A007F0882000A128E
:1003B8008A11D7210A128A118000840A04087D064E
:1003C80003190034FF0A0319FE0ADB293F340634F7
:1003D8005B344F3466346D347D3407347F346F3486
:04400E00D438FF3F64
:00000001FF
